:020000041000EA
:4000000000400208230100100D00000085010010000000000000000000000000000000000000000000000000000000008101001000000000000000008101001081010010E9
:400040008101001081010010810100108101001081010010810100108101001081010010810100108101001081010010810100108101001081010010810100108101001060
:400080008101001081010010810100108101001081010010810100108101001081010010810100108101001081010010810100108101001081010010810100108101001020
:4000C00010B5064C2378002B07D1054B002B02D0044800E000BF0123237010BD3C06000800000000B8310010084B10B5002B03D00749084800E000BF07480368002B00D141
:4001000010BD064B002BFBD09847F9E70000000040060008B8310010E8000008000000007047FFF7FDFF72B60F4C104DAC4209DA21686268A368043B02DBC858D050FAE7C0
:400140000C34F3E70A490B4A0020521A02DD043A8850FCDC084809490860BFF34F8F00F005F900F01DF8FEE7BC310010D43100103C060008140800080000000808ED00E095
:40018000FEE7FEE700B504207146084202D0EFF3098001E0EFF30880043001F02FFBFEE710B562B6014800F067F9FEE70000081010B5002001F09EF810BDC04670B562495D
:4001C000E0239B00CB580F2213401A00D0329200525807210A40032A05D0042A06D0002A12D15A4814E05A4A106811E01A00C0329200554952581F210A40112A06D0132A7C
:4002000004D0FA20C00103E0524801E080200002002B36D14C4BB222D2009A5801211140B125ED005A59120F032422405B591B0F1C4207D0444C63591B0F03242340012BDC
:4002400002D102E0012300E00023002B01D0002901D1032A4BD13C4BB022D2009D58AD03AD0B3D495958C904C90C9C58240E01231C40013401F0CCFD6843210001F0C8FDEA
:4002800035E0012B33D1304BC822D2009A5801251540C024E4001A59120F03210A401B591B0F194207D028490B591B0F03210B40012B02D102E0012300E00023002B01D049
:4002C000002D01D1032A12D11F4DC022D200AB587F210B40A958090A1F263140AC58240C3440584301F094FD210001F091FDE0239B00154AD3581B0903221340D840144C76
:400300006060164B1D692D0AFC32154001351969090E013101F07CFDA060290001F078FD0500E06020610E4BC0180E4901F070FD20750D4BE818FA21890001F069FDA061CD
:40034000C003E06170BDC0460000264000127A00C000000800366E0184050000000021403F420F0040420F00E703000010B5284801F048FD274CB022D200A3585B005B08B7
:40038000A350E0218900635830208343635080235B04A350204A214BE250A02292010433E250FF221E4BE25001F01AFDC0225200A35801218B43A35000F090FAFFF7FEFE3F
:4003C000B0235B055B78002B04D0B0235B055B78DBB200E02123212B03D1124B0022DA605A60114C22008021042000F029FD2000103000F0BDFD0D4B1A685123D35C002BA2
:4004000002D00B4800F02AFE00F0F2FB10BDC046003100100000264001000200840500008C050000E00023405806000810080008881F00108023024AD3580320184070473F
:400440000000214010B501F06CFA084980228C58074B2340074C23438B508823034AD358DB06FAD501F061FA10BDC04600002140FCFF00000100FA0570B50500830504D00B
:40048000E821FF310F4801F08BF901F04AFA0400FFF7D0FF032801D1FFF7D4FF0A4AB0239B00D55080215058084B03400848034353508823044AD358DB06FAD5200001F08F
:4004C00034FA70BDBC1F001000002140FCFF00000300FA05FEE7C046F0B50025002711E0BB00C658F3B2FF22964308E06A008A181478A419527822700135013BDBB2002B50
:40050000F4D10137062FEBD9F0BDC04680221206054B1A60054B064A1360064A1360064A064B1A607047C04600001D417800010000031D4144031D4101001180000E1F4103
:4005400010B50A00002101F0F8FC10BD10B501F0EBFC10BD30B587B0CD49A022D2008B58032083438B50CB4A116808688823CB58C3181868C8490840186013681868842467
:400580001B59C01803681B021B0A80256D042B430360106805680359EB1818680140196013683E229A5C002A06D0B948E02189004258753CA24342503E229A5C002A06D069
:4005C000B348E021890042583024A24342503E229B5C002B07D0AE49E02292008B588020000603438B500021012000F0B5FE0021022000F0B1FE0021032000F0ADFE0021BC
:40060000042000F0A9FE0021002000F0A5FE01A8A24903000A0032CA32C312CA12C300F0C9FE002802D00420FFF754FF98499C4A8B588020000603438B509A4800F076FF12
:40064000002802D00420FFF745FF914C964BE158964A0A40E250E158954A0A40E250E25880252D062A43E250043BE158914A0A40E250E158904A0A40802189010A43E250B4
:40068000E258802109020A43E2508C4A11688C4B0B40802149000B431360002001F082FB884BE2581543E550E158012291430A43E2506421002001F0B9F8764B1B683F22F6
:4006C0009A5C022A06D970229A5C01210A407E49986842509A6874215B5AD21851686E4B0B408C2189010B4353606A4B1B6873229A5C0321914070229A5C7220185C140027
:4007000084402143012002400A43802109060A438021C900986842509A6852583F229A5C052A06D970229A5C02210A406749986842509A6874215B5AD2189168564B0B4085
:400740008C2189010B439360524B1B6873229A5C0321914070229A5C7220185C140084402143022002400A43802109060A438021C900986842509A6852583F229A5C132AAD
:4007800006D970229A5C03210A405149986842509A6874215B5AD218D1683F4B0B40C42189010B43D3603B4B1B6873229A5C03200400944070229A5C7221595C15008D40C3
:4007C0002900214302400A43802109060A438021C900986842509A6852583F229A5C392A06D970229A5C04210A403A49986842509A6874215B5AD2181169274B0B40C42141
:4008000089010B431361234B1B6873229A5C0321914070229A5C7220185C140084402143042002400A43802109060A438021C900986842509A6852583F229A5C092A03D973
:400840000021254A986881509A6874215B5AD2181168114B0B40802189000B4313600D4B1A687323D15C703B8B4019007023D35C7220105C83400B43802109060B4380213A
:40088000C9009068435093685B5807B030BDC0460000264010080008FF00FFFFD41F0010087F0000400D030004050000FEFCFFFFFFFF00FFFFF0FFFFFF8FFFFF0000274051
:4008C000FFFCFFFF0C050000080C0000140C00004C0C0000E40C0000240C000070B58AB09621002000F0A2FF00F078FF002814D100F064FFC0235B00534AD358DB0705D4F3
:400900001100524A8B585B005B088B504E494F4A8B588020000603438B50012001F0DAF94B4A516C4B4B0B40E82189010B435364536C1B0AFF2213403A2B07D1444A516C24
:40094000454B0B40E82189010B435364FFF702FE424A434B1A6000240CE0620012195300404AD318198B9A8AD88A00041043FFF7E7FD01340B2CF0D900240AE062001219EA
:400980009300384AD3185A6E196ED86DFFF7DEFD0134112CF2D9344D28004C3033493431FFF79AFD0123324A1360324A1360324A1368832149000B43136001AC2422002147
:4009C000200001F0BAFAC023DB03E36021002B4800F016F922002B00683323CB23C223CB23C223CB23C22100254800F009F9254D22002B000C3343CB43C243CB43C243CB88
:400A000043C22100204800F0FBF822002B00303343CB43C243CB43C243CB43C221001B4800F0EEF822002B00543323CB23C223CB23C223CB23C22100154800F0E1F8FFF778
:400A400065FD0AB070BDC046000026400C05000000002740FF00FFFFFFC5FFDF0300FA05F0012140D41F001054230010D42000100479344008793440007934400000324083
:400A800080023240D4230010000332408004324000053240214B984230D00ED8402831D004D800281FD010282AD031E080282BD080235B00984229D02AE0194B984229D0D9
:400AC00007D8A0231B0698420DD0164B984212D01EE0154B98420AD0144B984209D0144B984215D101E0002016E0124814E0124812E0124810E0A020C0030DE007480BE097
:400B00000F4809E00F4807E00F4805E0034803E00E4801E0A420C0037047C04606005200010000F0090000A0040000F0050000F0030000F001005200020052000300520088
:400B4000010050000200500005005200FF00520070B5124B1A683123D35C002B04D1C421FF310F4800F01CFE0C4B1D682C00B423EB582A6A944663441B68002B0BDB094B0E
:400B80001868FFF787FF6B6801229A6063689B68002BFBD100E0044870BDC046100800087C2D0010E80700080200500010B50D4B1861002805D002230370FD3343700023D2
:400BC0004380094B1B6850229A5C002A08D051229B5C002B04D04F3A0449002000F0F8FA10BDC046E8070008100800086101000810B502481430FFF7D9FF10BDE807000877
:400C000070B505000C0000285DD000295DD0FF230A689A4303D099212D4800F0C1FDFF2322699A4303D09A21294800F0B9FDA3685B0D03D09B21264800F0B2FD63685B0A44
:400C400003D09C21224800F0ABFDE3695B0F03D09D211F4800F0A4FD236A5B0F03D09E211B4800F09DFD1B4A11688B69EB1ADB0949691B01CB18216829607D211068415CFC
:400C80006918E06808607E211068415C6918206908607F211068415C6918606908607C211068415C6918A06808606168A961116880228A5CAD18A2692A60E2691A60226A54
:400CC0005A60002002E0044800E0034870BDC046BC2D00101008000801005A0070B504000D000A4B1A68B423D3581B181B68002B0ADA0B0C03D00649064800F051FD2D0450
:400D00002D0C6560002000E0034870BD10080008D50200003C2E001001008A0070B505000C000368002B01DA002300E0084B002B0BD1EA60230C03D00649074800F030FD36
:400D40002404240CAC60002000E0014870BDC04601008A00BB0200003C2E001070B505000C1E03D19921084800F01AFD074B1A68B423D3585B191B68002B03DAEB682360ED
:400D8000002000E0024870BD7C2E00101008000801008A0070B504000D00234B1A683123D35C834236D9002936D00B68DB0635D13123D35C984204D3C421FF311B4800F0B5
:400DC000EFFC194B1B681A6AB0215B5A5C431419174E34602B68DA080021686801F0ADF800212000FFF77AFF3468002D03D111490E4800F0D5FC2A0000212000FFF78EFFAA
:400E000000280DD10A4B18680021FFF767FF002808D108E0084806E0074804E0064802E0064800E0054870BD100800083C2E0010000800089303000003018A0001018A00D6
:400E400010B50400002A17D1002915D1124B1A683123D35C984204D3C421FF310F4800F09FFC0D4B1B681A6AB0215B5A5C4314190B4B1C6000200EE0002A09D0002909D0E8
:400E8000074B59609A60191D2000FFF783FF02E0044800E0034810BD100800083C2E00100008000803018A00F0B583B00D001C4B1B68DC68236883422DD947097B01C01AF2
:400EC000012383401E00002903D100F02AFD019001E000230193124B18680368002B01DA002300E00F4B002B0ED16368BF00DF193B68334203D0B3433B60002400E00A4CA3
:400F00000021FFF7EBFE00E0084C002D04D1019800F00BFD00E0064C200003B0F0BDC0460008000801008A00020188000301880004018A000A4B1B68DA68136883420BD9B3
:400F400043095901401A0121814052689B009B580B4203D0034802E0034800E003487047000800080101880004018A0000018800034B1B68002B01D1014B18607047C046CB
:400F80000C080008F0B5474680B404000F0090461E002D4B1B68002B03D1B5212B4800F0FFFB294B1B682C2060431C18FF22150035402560330A13406360360CA660244B27
:400FC0001A683123D35C9D4204D3C421FF31214800F0E6FB1E4B1A68B023D35A6B43116A8C466344236166683223D35C9E4204D3E021FF31174800F0D3FB154B1B681D6A15
:4010000080367601AD196561A668330C04D0FF214900104800F0C4FB330C03D00E490D4800F0BEFB3604330C1E43AE604346E36127620023A361069B002B02D000229B5EE1
:40104000A38104BC9046F0BD0C080008BC2E0010100800083C2E0010FF010000F0B58FB0041E03D15221294800F09AFB6368032B03D95421254800F093FBE36A002B03D195
:401080005821224800F08CFB236B002B03D159211E4800F085FB07AA1300210061C961C321C921C302AD290023001433C1CBC1C141CB41C10821535E0CAE3380144B1B6871
:4010C00036215B5E07998C466344B370089B0D930B9B0A980096A26AE16AFFF753FF2B69E868002200920021FFF74CFF216B300000F0E8FA0023F25E002A05DB1F231A4043
:401100001E3B9340034A13600FB0F0BDBC2E00101008000800E100E0F8B505000F0016001C00002A03D1FD21224800F039FB224B1B68002B03D1FE211E4800F031FB1E4BE6
:401140001B682C2128004843181879435918012213004D68AB401B044568AA4015000269002A20D08F69002F1FD11268002A01DA002200E0114A002A19D132681204120C94
:40118000134333600369DE6001238B614C6204692B0C03D00A490B4800F002FB2A04120CA260002004E0084802E0084800E00748F8BDC046BC2E00100C08000801008A0075
:4011C000BB0200003C2E001004028A0007028A0070B504000D0016000F4B1B68002B04D1AF2149000D4800F0DBFA0B4B1B682C2060431C18236A002B04D1B1214900074846
:4012000000F0CEFAE369B34204D9236AB6009D51002000E0024870BD0C080008BC2E00100A028A0070B582B0040000230193002804D1D221FF312D4800F0B2FA2369002B8A
:4012400004D1E9214900294800F0AAFA6369002B04D1D421FF31254800F0A2FA236A002B04D1EA214900214800F09AFA6269D5682B0C24D01B041360136820691C4B1A68D7
:40128000B423D358C3181B68002B18DA01A9FFF765FD00280ED1019803681E0CFF221340E269934207D29B00226AD358002B02D0984700E0002631002069FFF70FFD2D04EC
:4012C0002D0C0FD063691D601B68636A002B03D098470023636203E0A36A002B00D098470023A36163691B6802B070BDBC2E00101008000810B50400084B1B68002B04D1A0
:40130000B221FF31064800F04BFA044B1B682C2060431818FFF786FF10BDC0460C080008BC2E001010B50400094B1B689B6CC340DB0703D4BE21074800F032FA044B1B6853
:401340001B691034A402E3580F20184010BDC04610080008FC2E0010134B1A683C23D35C83421DD9042904D94B1EFF3B9BB2132B18D8FF290CD91F2319400C4A0300C033CB
:401380009B009950D03080000423835000200AE007231940D0308000044BC150002002E0034800E002487047100800080000264001004A0070B5041E03D14A494A4800F093
:4013C000EFF9B023DB00494AD358002B00DA87E0474B22689A4203D94649434800F0E0F923689B039B0BE279002A02D08022520400E000221343B022D2003C498B50A288D2
:401400003D4B9A4204D98C218900374800F0C8F922893A4B9A4203D93949334800F0C0F9A388DB04D90C23891B04364A13400B43354A2E498B50A37A0F2B04D98E2189005F
:40144000294800F0ADF9E37A0F2B03D92F49264800F0A6F9A289284B9A4203D92C49224800F09EF9A37A0F211940E27A1201FF2313400B43A289120226490A401343A27B7E
:401480001207C02189050A401343B122D20017498B50A379042B03D91F49134800F080F9228A164B9A4204D9912189000E4800F077F90E4819494558194B1D40A3791B02CB
:4014C000E022D20013402B4343504558154B1D40238A1B040B4A13402B434350002000E0114870BD1F0200003C2F001000002640FFFF030029020000FF1F0000FF01000023
:40150000310200000000FF0184050000390200003A02000000FF1F00430200008C050000FFF8FFFFFFFF00FE03004A0070B505003149324A8B588020000603438B502C0050
:4015400003E0012000F020F9013CB223DB002A4AD3585B0701D4002CF3D12749B122D2008858274B03408020800503438B50002D01D0002C0CD02049B022D2008B58802025
:40158000000603438B5003E0012000F0FDF8013CB223DB00184AD358DB0701D4002CF3D1002D01D0002C08D01349B122D2008B58C020800503438B5013E00F4BB121C900A6
:4015C00058580F4A02408020800502435A5008395A58520052085A5008495A58520052085A50002D03D0002C03D0002002E0002000E0044870BDC046000026408C05000073
:40160000FFFFFFCF02004A0070B505000C001A4B1B6828229A5C012A15D1820807211000884327D19200AD1AED00FF20A8401B6820339A181168AC4023004B40184004005A
:401640004C40146016E03A229B5EDBB2994203D176210A4800F0A4F8074B1B681B68072215408022120615438022920194466444A400E55070BDC04610080008C42F0010A0
:4016800070B504000D000B4B9A680B4B9A420CD1002904D13821FF31084800F081F81034054BA400E058E55003E01034A400044BE05870BD00ED00E000000008C42F001051
:4016C00000000010F0B5474680B482B0061E01914AD04368032B03D93221264800F060F80023F05E002804DBB178FFF78DFF002400E0214C0023F15E7368002912DB88082D
:401700001E4FC0308000C55903221140C900FC3290468A4095439A01434613408B402B43C35116E089B20F220A40083A92080632920013481018476803221140C900FF251E
:401740002A008A4097439A012B0013408B403B4343600B4B9A680B4B9A4206D10023F05E0199FFF78DFF00E0034C200002B004BC9046F0BDC42F00100100560000E100E049
:4017800000ED00E00000000810B5034B1B78584300F0BEF810BDC046D400000801BEFEE770B50D00044C18220100200000F0CDFBA5610020FFF7F2FF00060008054B802278
:4017C00012069A649B6C002B01DB002000E002487047C0460000274003004600054B8022120198585B68FF221A4202D08023DB021843704700002640FEE7C04610B50A4B0A
:401800000268DA6142681A6282685A62C2689A620269DA6242691A6382695A63C2699A63FFF7EAFF10BDC04600060008F0B5474680B4002801D0192300E064238B429B4107
:401840005B42304D2C682268A826A45BA41822680327BA433B401A4322602C682268A45BA2181668284CA046264016602C682668AA229446A25A96193268BA43134333601E
:401880002A6813686546525BD3181A68444614401C60002805D010291BD921291BD8012024E0184B1B6855229A5C914215D956229A5C914213D957229A5C914211D9582289
:4018C0009A5C91420FD959229B5C99420DD804200CE000200AE0022008E0002006E0012004E0022002E0032000E00520054A1268526813680F218B430343136004BC90465F
:40190000F0BDC04610080008FFFCFFFF000000000230800803D001300238FCD1C046C0467047EFF3108072B6704780F31088704710B5B0235B059B899BB2002B04D0B02305
:401940005B059B899BB201E080235B0080225200934215D1184C23681968683A9B58C9180B680F208343963A13430B6021680C689C23CB58E318196881430A431A6019E04A
:401980000D4C2368196898229B58C918B02040050A4BC2580A4B13400A681343C022920013430B60226811689C23D358CB18054A82581A6010BDC046100800084818000045
:4019C000FFFCFFFF4418000030B5B0235B059B899BB2002B04D0B0235B059B899BB201E080235B0080225200934215D1184C23681968683A9B58C9180B680F208343953ABB
:401A000013430B6021680C689C23CB58E318196881430A431A6019E00D4D2B68196898229B58C918B0246405C12040012258094B13400A681343C022920013430B602A68FB
:401A400011689C23D358CB1822581A6030BDC04610080008FFFCFFFFB0235B059B899BB2002B04D0B0235B059B899BB201E080235B008022520093420DD1104B1B681A68F3
:401A800098215B58D21811680D4B0B40C021C9010B43136011E0094B1B68196898229B58C918084BB0225205D258074B13400A681343C022920013430B6070471008000852
:401AC000FF8FFFFF18180000FFFCFFFF30B5B0235B059B899BB2002B04D0B0235B059B899BB201E080235B008022520093420DD1134B1B681A6898215B58D2181168114BF1
:401B00000B408021C9010B43136018E00C4D2B68196898229B58C918B02464050A4822580A4B13400A681343C022920013430B602A6811689C23D358CB1822581A6030BDD4
:401B400010080008FF8FFFFF4C180000FFFCFFFF10B5B0235B059B899BB2002B04D0B0235B059B899BB201E080235B0080225200934217D10020FFF7D5FBB0235B055B78D4
:401B8000002B04D0B0235B055B78DBB200E02123222B03D8002803D1013004E0012002E0002000E0012010BDF8B50700012803D93D493E48FFF7F4FDB0235B055B78002B68
:401BC00004D0B0235B055B78DBB200E021239DB2B0235B059B899BB2002B04D0B0235B059E89B6B201E0802676000020FFF79AFB002814D180235B009E4212D1222D12D8F7
:401C00002B4B1B685C682B4821582B4B19403B068022520413400B432350002404E0274C02E0264C00E0254C80235B009E4201D1222D03D880235B009E4232D01C4B1A681C
:401C40003123D35C002B04D1C421FF311C48FFF7A7FD174B1B681D6A80235B009E4203D1002F05D0174A06E0002F03D0164A02E0164A00E0164A01212800FFF74FF80028D2
:401C80000FD10B4B1A68B423D3585B191B68002BF7DBEB681B0E1B06A0221206934200D100242000F8BDC0464C0A0000083000101008000818F00000FFFFFFFE0400420053
:401CC0007C2D0010010100300300000C010000300100000CF8B50500012804D9822109012948FFF75DFDFFF733FF002849D0FFF718FE0700002D11D10021244B244AD150DC
:401D0000E823DB00B0225205D65CF6B20120FFF74BFF041E19D1FFF70BFE16E0B02252051C4BD0581A4B194958501B49565CF6B21A481A581F218A4314390A431A5003206B
:401D4000FFF722FDFFF7C2FE0024002C15D11049124A8B581F20834306401E438E50002D02D1FFF779FE08E00720FFF70DFDFFF72BFE0020FFF718FF04003800FFF7D5FD74
:401D800000E0074C2000F8BD08300010307F00000000264010180000410700001CFF000003004200042805D10B4A116804230B4313600FE0094B1A681168A023D358CB1827
:401DC0000006C022920410401860034A136804218B4313607047C04610E000E0100800080749C02252008B589B009B088020C00503438B508B588020000603438B50704736
:401E000000002640014B18607047C04610080008002243088B4274D303098B425FD3030A8B4244D3030B8B4228D3030C8B420DD3FF22090212BA030C8B4202D312120902B4
:401E400065D0030B8B4219D300E0090AC30B8B4201D3CB03C01A5241830B8B4201D38B03C01A5241430B8B4201D34B03C01A5241030B8B4201D30B03C01A5241C30A8B4231
:401E800001D3CB02C01A5241830A8B4201D38B02C01A5241430A8B4201D34B02C01A5241030A8B4201D30B02C01A5241CDD2C3098B4201D3CB01C01A524183098B4201D3AA
:401EC0008B01C01A524143098B4201D34B01C01A524103098B4201D30B01C01A5241C3088B4201D3CB00C01A524183088B4201D38B00C01A524143088B4201D34B00C01A44
:401F00005241411A00D20146524110467047FFE701B5002000F006F802BDC0460029F7D076E770477047C046002310B59A4203D0CC5CC4540133F9E710BD030082189342A0
:401F400002D019700133FAE77047030030B5002A0DD00C7801335D1E013A2C700131002CF5D19A189A4202D01C700133FAE730BDF8B5C046F8BC08BC9E467047F8B5C046B6
:401F8000F8BC08BC9E4670470300000001000000010000000000000005036000040000000100000000000000010000000604600008000000C8070008B101001073797374BD
:401FC000656D5F70736F63365F636D30706C75732E630000F4010000140004010A00090508000000630100000020344074008020344074000022344074008022344074005B
:40200000002434407400802434407400002634407400802634407400002834407400802834407400002A34407400802A34407400002134404C2400109000000000233440EC
:40204000DC24001090000000002534406C2500109000000000273440FC25001090000000002934408C26001090000000002B34401C2700109000000000603440AC27001072
:402080007C00000080603440282800107C00000000613440A42800107C00000080613440202900107C000000006234409C2900107C00000080623440182A00107C000000D2
:4020C00000633440942A00107C00000080633440102B00107C000000006434408C2B00107C00000080643440082C00107C00000000653440842C00107C0000008065344000
:40210000002D00107C0000001004200F21080B01370140364402460D47B0482449FF4A7F4BFF4C424DA04E70500C5D045E04630165096640670968306909804D82928303B8
:4021400084A58502864A870189098A018B448D088E048F7090029380953896029703981A99389A609B039CA99D339E549F08A0CCA11BA213A320A4FFA510A72BA804A901B8
:40218000AB06AEB5B178B4FFB507B780BB22BE10D4F6D620D704DC04DD04DF04E301004801010202030204420609081F09040C900E0B0F041003110113021401171018013B
:4021C00019041C401E141F082040220B244F2A012C032E20310832E033103503361F370438083E045C045D046301800181208206830287108801890F8A048D018E1B8F220B
:4022000090019121920A93029540960B99219B049F80A108A20BA305A525A70AA926AC0AAE01B180B210B31FB408B607B760B980BA80BE10BF40DC04DD04E301000F044002
:40224000061808100A200C0F120F14501602170118101AE01C401D011E18220F2450260128102A802C502E04300F330134F036F039083AA03E0140354552480349FF4AFF01
:402280004BFF4C424DA04E70500851105C045D045E046301654866406748688069486A806B48804081C0821D83078404850586E0877888E289FF8D108E028F07910392089F
:4022C000940195229705980199019C0D9D03A092A13AA260A304A43DA501A6C2A85DA901AAA2AD08AEFFAF07B380B4FFB57FB908BE10BF10DC04DD04E3010001039404A267
:4023000006180740083F09FF0C220D040F081006132014011590161E170119C01A401CB21E081F982004210F249826062708289C29902A222B022CAA2E10301F313F33C03F
:4023400034603680388239023E405C045D0463018048830184108621884089FF8A028D408E018F13914693A99533970C9848990E9B309C109E21A180A356A52AA754AA044D
:40238000AE03B040B1FFB208B438B607B82ABA80BE14DC04DD04E301689200011401180103013440482434404F2634405F2834404F2A3440017234400378344002000000AC
:4023C0000000000000000000600000000000000000000000000000000012000000000000080000000000000000000000006000BA0000000000000000000000000000000049
:4024000000001D1D0300000000000000000000006800600000000000000000000000000012120000000000007E0000000000000000000000C80C0000000000000000000021
:40244000000000000003030000000000000000000000000000000000FFFFFFFFFFFFFFFFFFFFFFFFFFFFFFFFFFFFFFFFFF000000FFFFFFFFFFFFFFFFFFFFFFFFFFFFFFFF7B
:40248000FFFFFFFFFF000000000000000000000000000000000000000000000000000000FFFFFFFFFFFFFFFFFFFFFFFF1111111111111111111111111111111111111111D9
:4024C00011111111111111111111111111111111111111111111111111111111000000000000000000000000FFFFFFFFFFFFFFFFFFFFFFFFFFFFFFFFFFFFFFFFFF00000015
:40250000FFFFFFFFFFFFFFFFFFFFFFFFFFFFFFFFFFFFFFFFFF000000000000000000000000000000000000000000000000000000FFFFFFFFFFFFFFFFFFFFFFFF1111111178
:402540001111111111111111111111111111111111111111111111111111111111111111111111111111111111111111004000000400000000000000FFFFFFFFFFFFFFF240
:40258000FFFF1FFF2FF33FFFFFFFFFFFFF0000003330153551542F3301641055FFFFFF520120FFFFFF00000000000000000000000000000000000000000037011000400F22
:4025C000FFFFFFFFFFFFFFFFFFFFFFFF0011111411CDDD00C01611101161100111000841101D610CB11110C11013111316113041D111111111A1B11111C1111100080000A2
:402600000000000000000000F70145FFF55F4F5304462310FFFFFFFFFFFFFFFFFF000000711415312136FFFF4562143FFFFFFFFFF5FFFFF1FF0000000000000000000000FB
:4026400000000000000000000040000000F00000FFFFFFFFFFFFFFFFFFFFFFFF0003121F11F1F130F016011011F052D8113221111011F13F14813111101143121D12F3F177
:40268000F111114111F1F111141111218000000000000000000000003502131423155FFFF0F7F1FFFFF4F0FFFFFFFFFFFF0000003130156121511141641313523FF6F05F48
:4026C0001FFFFFFFFF00000000000000000000000000000000000000000500F000000000FFFFFFFFFFFFFFFFFFFFFFFF030F6F1111F39513F0D7015018F0F31F115F1815C9
:402700003011111F1F111F131031101F1F101FF11911114711F1F111111111110000000000000000000000000301FF46FF23FF432F31022FFFFFFFFFFFFFFFFFFF00000018
:402740003230350053215F1341341003F332F0FFFFFFFFFFFF000000000000000000000000000000000000000000020000000000FFFFFFFFFFFFFFFFFFFFFFFF9321111476
:402780001134F81F169321F63FF34F1113FF311F1317113F1F1111111211131F1F141F111111111F111111111111111100000000000000001F1F1F1F1F1F1F1F1F1F1F1F37
:4027C0001F1F1F1F1F1F1F1F1F1F1F1F1F1F1F1F1F1F1F1F000000000000000000000000000000000000000000000000FFFFFFFFFFFFFFFFFFFFFFFF1111111111111111F1
:402800001111111111111111111111111111111111111111111111111111111111111111111111111111111100000000000000001F1F1F1F1F1F1F1F1F1F1F1F1F1F1F1F00
:402840001F1F1F1F1F1F1F1F1F1F1F1F1F1F1F1F000000000000000000000000000000000000000000000000FFFFFFFFFFFFFFFFFFFFFFFF111111111111111111111111A8
:4028800011111111111111111111111111111111111111111111111111111111111111111111111100000000000000001F1F1F1F1F1F1F1F1F1F1F1F1F1F1F1F1F1F1F1F48
:4028C0001F1F1F1F1F1F1F1F1F1F1F1F00000000000000000000000000000000000000000000F000FFFFFFFFFFFFFFFFFFFFFFFF1111111111111111111111111111111170
:4029000011111111111111111111111111111111111D111111111111111111111111111100000000000000001F1F1F1F1F1F1F1F1F1F1F1F1F1F1F1F1F1F1F1F1F1F1F1F83
:40294000041F1F1F1F1F1F1F000000000000000000000000000000000000000000000000FFFFFFFFFFFFFFFFFFFFFFFF111111111111111111111111111111111111111132
:402980001111111111111111111111111110111111111111111111111111111100000000000000001F1F1F1F1F1F1F1F1F1F1F1F1F1F1F1F1F1F1F1F1F1F1F1F1F1F1F1FD8
:4029C0001F1F1F1F000000000000000000000000000000000000000000000000FFFFFFFFFFFFFFFFFFFFFFFF111111111111111111111111111111111111111111111111CF
:402A000011111111111111111111111111111111111111111111111100000000000000001F1F1F1F1F1F1F1F1F1F1F1F1F1F1F1F1F1F1F1F1F1F1F1F1F1F1F1F1F1F1F1F1E
:402A4000000000000000000000000000000000000000000000000000FFFFFFFFFFFFFFFFFFFFFFFF1111111111111111111111111111111111111111111111111111111186
:402A8000111111111111111111111111111111111111111100000000000000001F1F1F1F1F1F1F1F1F1F1F1F1F1F1F1F1F1F1F1F1F1F1F1F1F1F1F1F1F1F1F1F00000000E2
:402AC0000000000000000000000000000000000000000000FFFFFFFFFFFFFFFFFFFFFFFF1111111111111111111111111111111111111111111111111111111111111111C2
:402B00001111111111111111111111111111111100000000000000001F1F1F1F1F1F1F1F1F1F1F1F1F1F1F1F1F1F1F1F1F1F1F1F1F1F1F1F1F1F1F1F0000000000000000A5
:402B400000000000000000000000000000000000FFFFFFFFFFFFFFFFFFFFFFFF111111111111111111111111111111111111111111111111111111111111111111111111FD
:402B800011111111111111111111111100000000000000001F1F1F1F1F1F1F1F1F1F1F1F1F1F1F1F1F1F1F1F1F1F1F1F1F1F1F1F1F1F1F1F00000000000000000000000069
:402BC000000000000000000000000005FFFFFFFFFFFFFFFFFFFFFFFF1111111111111111111111111111111111111111111111111111111111110111111111111111111144
:402C0000111111111111111100000000000000001F1F1F1F1F1F1F1F1F1F1F1F1F1F1F1F03121F1F1F1F1F1F1F1F1F1F1F1F1F1F0000000000000000000000000000000055
:402C40000000000000300000FFFFFFFFFFFFFFFFFFFFFFFF111111111111111111111111111111111011111111111101111111111111211111111111111111111111111145
:402C80001111111100000000000000001F1F1F1F1F1F1F1F1F1F1F1F1F1F1F1F1F1F1F1F1F1F1F1F1F1F1F1F1F1F1F1F00000000000000000000000000000000000F0000E1
:402CC00000000000FFFFFFFFFFFFFFFFFFFFFFFF111F11111111111111111111111111111D11111111111101111111111111111111111111111111111111111111111111A6
:402D000000800000000000001F1F1F1F1F1F1F1F1F1F1F1F1F1F1F1F1F1F1F1F1F1F1F1F1F1F1F1F1F1F1F1F0000000000000000000000000000000000000F000000000024
:402D4000FFFFFFFFFFFFFFFFFFFFFFFF1111111111111111111111111111111111111111111111D111111111111111111111111111111111111111111111111147656E65F0
:402D800072617465645F536F757263655C50536F43365C70646C5C647269766572732F7065726970686572616C2F6970632F63795F6970635F6472762E68000047656E6529
:402DC00072617465645F536F757263655C50536F43365C70646C5C647269766572735C7065726970686572616C5C6770696F5C63795F6770696F2E630000000047656E652C
:402E000072617465645F536F757263655C50536F43365C70646C5C647269766572735C7065726970686572616C5C6770696F5C63795F6770696F2E680000000047656E65E6
:402E400072617465645F536F757263655C50536F43365C70646C5C647269766572735C7065726970686572616C5C6970635C63795F6970635F6472762E68000047656E65E1
:402E800072617465645F536F757263655C50536F43365C70646C5C647269766572735C7065726970686572616C5C6970635C63795F6970635F6472762E63000047656E65A6
:402EC00072617465645F536F757263655C50536F43365C70646C5C647269766572735C7065726970686572616C5C6970635C63795F6970635F706970652E630047656E6504
:402F000072617465645F536F757263655C50536F43365C70646C5C647269766572735C7065726970686572616C5C70726F745C63795F70726F742E630000000047656E65BE
:402F400072617465645F536F757263655C50536F43365C70646C5C647269766572735C7065726970686572616C5C737973636C6B5C63795F737973636C6B2E630000000055
:402F800047656E6572617465645F536F757263655C50536F43365C70646C5C647269766572735C7065726970686572616C5C737973636C6B5C63795F737973636C6B2E6891
:402FC0000000000047656E6572617465645F536F757263655C50536F43365C70646C5C647269766572735C7065726970686572616C5C737973696E745C63795F73797369A7
:403000006E742E630000000047656E6572617465645F536F757263655C50536F43365C70646C5C647269766572735C7065726970686572616C5C737973706D5C63795F73B6
:403040007973706D2E6300000000204000002440000000400000000000002340000030400000314000009F40000022400000104002020202020202020210101D8000170037
:403080007500FF030602063604102000000000007FC0000000040000000000000019324B647D00804000080B100000000000FF012002001F00800004FF081018001000146C
:4030C0000018001C4044484C50000000081000000800000004000000041000000012000004210000002100000016000040114002C41300138013A013200000001C0000008F
:403100000000214000002540000001400000344000002440000031400000324000001F410000234000001140010101010101010101101010800019005500F0000501053B5C
:4031400004101C01010000000FC000000004000001010101011D3A57789600082000101208000000001F00000010000F002000023F06080E00080009000A000B24282C30AE
:4031800034000000100000009000000088000000080000008000000004F0000000F00000400200002005A000D00100018001A001200000001000000000000000000000100C
:4031C00000000008C0000000DC310010C0000008400500003C060008D80100000048E80100127A0000093D0000093D0000093D0004000000A00F00000000D007E9000010A8
:40320000C10000100000000010B50004400B27D0144B1A68146AB023D15ACA00531AE3181B68002BF4DA3E220F4B1A600F4A104B1A60104B0621A322D20099500E4A985003
:403240009B58084B1A68106AB023D15ACA00531AC31800225A60084B064AD358002BFADA10BDC04610080008040126401E1F000008012640000026401C05000010B5437842
:40328000FF2B20D100F032FA04000F4B1A683123D35C042B04D8C421FF310C4800F0F6F9094B1A68116AB023D35A9B00CB18DB685A68116801230B4313601368DB07FCD4C2
:4032C000200000F023FA10BD100800087C2D0010F0B585B001900291544B1A683123D35C002B04D1C421FF31514800F0CFF94F4B1B681E6AB4229A58971950229B5C002B42
:4033000077D000F0DBF9050003283CD1474B1A683123D35C062B04D8C421FF31444800F0B5F9424B1968B023CB5A5A00D21853000A6A94466344B4228A58D3181B68002B7F
:4033400023DB002000F0CAF93A4B98421FD03A4B1A6900230021012000F0A8F9002803D0364C17E0013400E00024002000F0B6F9304B984202D0324B9C42F3D9304B9C421D
:4033800007D92E4C06E0002404E02C4C02E02B4C00E00024002C46D100F0A8F90390294B294AD358002B13DA234A0121300000F0A5F900280ED10298FFF726FF019B002B8F
:4033C0000AD03B68002BFCDB00F080F9040004E01A4C02E0194C00E01C4C032D05D10121002000F05BF90028F9D1039800F08EF919E000F07BF905000F4A0121300000F07B
:403400007DF9002809D1019B002B08D03B68002BFCDB00F05BF9040002E0084C00E00B4C280000F073F9200005B0F0BD100800087C2D001001018800E80700080500520064
:40344000EF4902001C0500000000264001005000F0B54F464646C0B4824B1A685468B0235B055B78002B04D0B0235B055B78DBB200E02123212B67D1B023D15ACB005B1A77
:40348000116A8C46634419680029F5DADD6802212943D960B023D15ACB005B1A116A8C466344D968C9073ED5D9680904090C8C4684271168D559A84641440968090A0904B1
:4034C000FF26360431400D0088261168894691598846C14449460968090A0906294365462943D9601168D359C9180A685E4B98461A4090252D012A430A605A4B99461A68C5
:4035000013689C46925962441368414619400B002B4313604B461A681568D15969180B689359EB181B684F4B1A68B021555AEB005B1B156AAC46634400255D60156A515A15
:40354000CA00531AEB185B68484A116904230B431361012801D030BF00E020BF414B1A68B023D15ACB005B1A116A8C46634419680029F3DAB02149054978002904D0B0214C
:4035800049054978C9B200E02121212932D1D968C90722D510688421525880180468324A1440DB681B0C1B02FF2109020B40234303602C4B19688823C8580B689C466044ED
:4035C00003681A400D6AB023CC5AE1000B1BEB18DB681B0E1B021A430260224B1A68106AB023D15ACA00531AC318DA6802218A43DA6028E086235B00E358002B23D11C4895
:4036000007681C4BA321C9005E581B4A904615681A4A0260062058503E21424611600631174A9950164B134AD358002BFADA154A86235B00E2500E4B1F60A323DB000D4AFF
:40364000D6500D4B1D60074B1A68106AB023D15ACA00531AC31800225A600CBC90469946F0BDC04610080008FF00FFFF00ED00E00801264000002640040126401E1F00007E
:403680001C050000AAAAAAAA0000000001B40248844601BC604700BFA117001001B40248844601BC604700BFA90E001001B40248844601BC604700BF1911001001B40248B5
:4036C000844601BC604700BF3504001001B40248844601BC604700BF510B001001B40248844601BC604700BF350F001001B40248844601BC604700BF2319001001B40248C5
:40370000844601BC604700BF1D0D001001B40248844601BC604700BF2B19001000000000000000000000000000000000000000000000000000000000000000000000000022
:403740000000000000000000000000000000000000000000000000000000000000000000000000000000000000000000000000000000000000000000000000000000000049
:403780000000000000000000000000000000000000000000000000000000000000000000000000000000000000000000000000000000000000000000000000000000000009
:4037C00000000000000000000000000000000000000000000000000000000000000000000000000000000000000000000000000000000000000000000000000000000000C9
:020000041008E2
:4000000000780408EB0208100D0000005103081051030810510308105103081000000000000000000000000000000000312508104D0308100000000061250810C525081004
:400040004D0308104D0308104D0308104D0308104D0308104D0308104D0308104D0308104D0308104D0308104D0308104D0308104D0308104D0308104D0308104D03081000
:400080004D0308104D0308104D0308104D0308104D0308104D0308104D0308104D0308104D0308104D0308104D0308104D0308104D0308104D0308104D0308104D030810C0
:4000C0004D0308104D0308104D0308104D0308104D0308104D0308104D0308104D0308104D0308104D0308104D0308104D0308104D0308104D0308104D0308104D03081080
:400100004D0308104D0308104D0308104D0308104D0308104D0308104D0308104D0308104D0308104D0308104D0308104D0308104D0308104D0308104D0308104D0308103F
:400140004D0308104D0308104D0308104D0308104D0308104D0308104D0308104D0308104D0308104D0308104D0308104D0308104D0308104D0308104D0308104D030810FF
:400180004D0308104D0308104D0308104D0308104D0308104D0308104D0308104D0308104D0308104D0308104D0308104D0308104D0308104D0308104D0308104D030810BF
:4001C0004D0308104D0308104D0308104D0308104D0308104D0308104D0308104D0308104D0308104D0308104D0308104D0308104D0308104D0308104D0308104D0308107F
:400200004D0308104D0308104D0308104D0308104D0308104D0308104D0308104D0308104D0308104D0308104D0308104D0308104D0308104D0308104D0308104D0308103E
:400240004D0308104D0308104D0308104D0308104D0308104D0308104D0308104D0308104D0308104D0308104D0308104D0308104D0308104D0308104D0308104D030810FE
:400280004D0308104D0308104D03081010B5054C237833B9044B13B10448AFF300800123237010BD844902080000000034640810084B10B51BB108490848AFF300800848E6
:4002C000036803B910BD074B002BFBD0BDE81040184700BF00000000884902083464081050430208000000007047FFF7FDFF72B6104C114DAC4209DA21686268A368043B8E
:40030000A2BFC858D050FAE70C34F3E70B490C4A00209142BCBF41F8040BFAE709480A490860BFF34F8F00F0F7FA00F0D1FA00F0E3F8FEE7386408105064081084490208A1
:40034000485102080040020808ED00E0FEE7FEE700B504207146084202D0EFF3098001E0EFF30880043000F0DBFFFEE770B52E4B0122C3F83021D3F830312C4A13889BB255
:4003800001339BB2138053889BB201339BB2538013889BB20A2B38D10020108002F004FAF8B900232CE0012000F086FF254626461F4B1B6803EB83039A001E4B1A4453681D
:4003C0009C4204D34FF476711B4800F099FF31461A4801F031FE1A4B23F815000134A4B200E00024032CDED90122104B1A7102F0C9F90AE00021124A22F8131001339BB24E
:40040000032BF7D9052000F057FF084B5B889BB2B3F5FA7F04D1054B00225A8001225A71014BD3F8303170BD00003840A0490208C04C020858610810785B081000001D4160
:40044000384F020810B4084C235C4B40E05C002305E0D45C6040044C205C0133DBB28B42F7D35DF8044B7047385A08102DE9F04106460F46154605E00822174B5A600520F9
:4004800000F01AFF1549164801F08CFB0128F3D0144C267065702A463946A01C02F07EFE05F102083A4629463046FFF7CBFF04F808000822084B9A60084BEA1C214608487F
:4004C00001F016FB28B10822034B5A60052000F0F3FEBDE8F08100BF000332400C51020800006340344E020882B002AB43F8040D1868086002B070472DE9F0432DED028B9D
:4005000087B002F0B9F802F0C5F97549A1230B70744B0122744801F0EBFA02F06BF9734C7349204600F08EFEB4F90030002B08DB590903F01F03012202FA03F36D4A42F8A5
:40054000213062B66C4C0023009301230E220321204600F0DBFA0823A36002F013F902F077F9664B1B7913F0FF0FFAD00025634B1D712C460A265DE02746614B33F814209B
:4005800012B221465F4801F0ADFD08EE100A5B4B5B7913F0FF0F28D0032C26D1574B00225A71D3ED027AF5EE407AF1EE10FA19D0DFED557A78EE277A93ED027AF4EEC77A1A
:4005C000F1EE10FA0BD9DFED507A78EE677A93ED027AF4EEC77AF1EE10FA02DA02E0F32600E0F326454B83ED028A18EE100A02F0E7FA8046894634A3D3E9002302F0C4FDFC
:4006000028B9B5EEC08AF1EE10FA03D501E0F22600E0F2263D49294418EE100AFFF764FF0435EDB242464B463946394803F03AFA0134E4B2032C9FD9344F79193548FFF7BC
:4006400053FF2C1DE4B222A3D3E90023324803F029FA39193148FFF747FF05F108085FFA88F81DA3D3E900232D4803F01BFA02AC2C4B186859689A68DB680FC408EB070E8D
:4006800002AC0FCC48F80700CEF80410CEF80820CEF80C301835EDB2002409E006AB03EB440333F9102C21461F4803F0FBF90134072CF3DD1D4803F067FA2A461349304671
:4006C000FFF7D4FE4DE700BF6666666666660A400000002083C0F33F000000E0C9C30240344E02080C51020800006340405C08106D03081000E100E000033240A049020853
:40070000384F020800001D419A99993ED44C0208985B081019049E3FA85B08104F1E1640C05B0810385B0810D85B0810EC5B081008B5012000F04CFD08BD00BF704700BF1A
:400740005C4AD2F8803303F00F0303F1D00152F8212002F00702032A04D0042A05D092B9554914E0554A116811E003F1C002514951F8222002F01F02112A06D0132A04D00C
:400780004FF4FA4103E04E4901E04FF400418BBB484BD3F8902502F00100D3F88825C2F30172D3F8883513F0405F07D0414BD3F88835C3F30173012B02D102E0012300E0CC
:4007C000002303B108B9032A46D13A48D0F88025C2F31103D0F88425C2F30C02D0F88005C0F300600130B1FBF2F202FB03F2B2FBF0F131E0012B2FD12E4BD3F8402602F0B7
:400800000100D3F80026C2F30172D3F8003613F0405F07D0274BD3F80036C3F30173012B02D102E0012300E0002303B108B9032A12D12048D0F8002602F07F02D0F8003633
:40084000C3F30423D0F80006C0F3044002FB01F2B2FBF3F2B2FBF0F1164BD3F88033C3F3011321FA03F215494A601648D0F89030C3F3072301330069000E0130B2FBF0F0D6
:400880008860B2FBF3F3CB600B6103F5742202F23F220D48A0FB0202C2F387420A7503F2E7330A4AA2FB03239B098B61DB03CB61704700BF0000264000127A008C42020852
:4008C00000366E010000214083DE1B43D34D621008B50D4800F088FDFFF730FFFFF730FF00221146042000F03BFA084800F0CEFA074B1B6893F8513013B1064800F036FBF2
:4009000000F0FCF808BD00BFD45E0810AC49020870500208FC5B081008B500F05EFD074AD2F8883043F47003C2F88830BFF34F8FBFF36F8F00F055FD08BD00BF00ED00E003
:4009400010B504462146034800F07EFD0028F9D010BD00BF00006640054BD3F80833C3F30803002BF8D0024BD3F84003704700BF000066401F4B98422DD00CD840282ED01C
:4009800003D8E8B1102828D02FE0802829D0B0F5807F28D029E0184B984228D006D8B0F1204F0DD0154B984212D01EE0144B98420AD00133984209D0023B984215D101E04C
:4009C000002070470F4870470F4870470F4870474FF4A0007047074870470D4870470D4870470D487047034870470C4870474FF4A400704706005200010000F0090000A095
:400A0000040000F0010052000200520003005200010050000200500005005200FF00520038B5124B1B6893F83130012B04D840F2C3110F4800F064FC0C4B1D682A6AB5F8F0
:400A4000B03013442C46D5F8B420D358002B0BDB084B1868FFF78EFF6B6801229A6063689B68002BFBD138BD034838BD70500208585C08102C4B0208020050001A4B186169
:400A800028B102230370FF23437000234380174B1B6893F850202AB300B583B0B3F93830ADF80030002301931149684600F0CAFBBDF90030002B08DB590903F01F0301227A
:400AC00002FA03F30B4A42F82130084B1B6893F8513023B102220849012000F0F3FA03B05DF804FB704700BF2C4B020870500208C143020800E100E07944020808B5024896
:400B0000FFF7BCFF08BD00BF404B02082DE9F04104460D46174698469DF81860072903D9D921354800F0ECFB37F00F0303D0DA21314800F0E5FBB8F1010F03D9DB212E480E
:400B400000F0DEFB36F01F0303D0DC212A4800F0D7FB22680123AB4022EA030308F0010808FA05F843EA08032360244B1B6893F87D100B59A8000F22824023EA020207F0E9
:400B80000F0303FA00F717430F51072D04D94FF422711B4800F0B4FB36F01F0304D040F28921174800F0ACFB144B1B689A69A41AE4095B6924011919032D0DD81959ED007F
:400BC0001F22AA4021EA020206F01F0606FA05F515431D51BDE8F081043D4A68ED001F23AB4022EA030306F01F0606FA05F51D434D60BDE8F08100BF985C081070500208DE
:400C0000D85C081038B50B4B1B68D3F8B4301B58002B0DDA0D4604460B0C1B0423B140F2D521054800F06CFBA9B26160002038BD024838BD70500208185D081001008A00A9
:400C400038B50368002B01DA002300E0094B73B90D460446C2600B0C1B0423B140F2BB21054800F04DFBA9B2A160002038BD014838BD00BF01008A00185D081038B504467A
:400C80000D4619B99921084800F03AFB074B1B68D3F8B4301B59002B03DAE3682B60002038BD034838BD00BF585D08107050020801008A00254B1B6893F8313083423AD91D
:400CC00000293AD00B6813F01F0F38D170B50D4604461E4B1B6893F83130984204D340F2C3111B4800F00CFB184B1B68186AB3F8B03004FB0304174E34602A68D2080021EA
:400D0000686802F056FA00212046FFF77BFF346825B940F293310E4800F0F2FA2A4600212046FFF78DFF60B900210A4B1868FFF769FF40B970BD08487047074870470648A1
:400D40007047064870BD054870BD00BF70500208185D0810444B020803018A0001018A0010B504461346B2B9A9B9124B1B6893F83130984204D340F2C3110F4800F0C0FA45
:400D80000C4B1B681A6AB3F8B03004FB03240B4B1C60002010BD43B149B1084A51609360111D2046FFF786FF10BD054810BD044810BD00BF70500208185D0810444B0208C3
:400DC00003018A002DE9F0411B4B1B68DC68236883422CD90D464609A0EB4610012303FA00F819B900F0F9FA074600E00027124B18680368002B01DA002300E00F4B83B910
:400E0000626852F8263018EA030F05D023EA080342F82630002400E0094C0021FFF7F2FE00E0084C25B9384600F0DBFA00E0064C2046BDE8F08100BF444B020801008A0071
:400E4000020188000301880004018A000B4B1B68DB681A6882420CD94109A0EB4110012202FA00F05B6853F82130184203D004487047044870470448704700BF444B020863
:400E80000101880004018A0000018800024B1B680BB9014B18607047504B02082DE9F8430446884691461D46089F2C4B1B681BB9B5212B4800F024FA284B1B682C2000FB30
:400EC00004F01C18EEB21E50C5F3072363602D0CA560244B1B6893F831309E4204D340F2C311214800F00CFA1E4B1B68196AB3F8B02006FB02162661666893F832309E42BA
:400F000004D340F2DF11184800F0FAF9154B1B681D6A803605EB46156561A668330C1B0423B14FF4FF71104800F0EAF9330C1B0423B140F2FF110C4800F0E2F9B3B243EA01
:400F40000646AE60C4F81C90C4F820800023A36117B1B7F90030A381BDE8F883504B0208985D081070500208185D0810F0B58FB0044618B95221274800F0C2F9A369072B6D
:400F800003D95621234800F0BBF9E36A1BB95821204800F0B5F9236B1BB959211D4800F0AFF907AD04F114060FCE0FC537682F6002AD26460FCE0FC533682B60164B1B68DE
:400FC000B3F93620079B1344ADF83030089B0D93A26AE16A0CAD00953B460A98FFF75EFF00210091069B0A460598FFF757FF216B284600F027F9BDF93030002B08DB590977
:4010000003F01F03012202FA03F3044A42F821300FB0F0BD985D08107050020800E100E0F8B506460F461D4614461AB9FD211F4800F066F91E4B1B681BB9FE211B4800F0C5
:401040005FF91B4B1B682C2101FB063001FB07314B68012202FA03F31B04466802FA06F60269EAB18F69EFB91268002A01DA002200E0104AC2B92288134323600369DC60C8
:4010800001238B614D620469330C1B0423B140F2BB21094800F034F9B2B2A2600020F8BD0648F8BD0648F8BD0548F8BD985D0810504B020801008A00185D081004028A00B9
:4010C00007028A00F8B505460F4616460E4B1B6823B94FF4AF710D4800F012F90A4B1B682C2404FB0534236A23B94FF4B171074800F006F9E369B34204D9236A43F8267061
:401100000020F8BD0248F8BD504B0208985D08100A028A0070B582B000230193044620B940F2D111284800F0EBF8236923B94FF4E971254800F0E4F8636923B940F2D3110F
:40114000214800F0DDF8236A23B94FF4EA711E4800F0D6F86369DD682A0C20D012041A601B682069194B1B68D3F8B430C358002B15DA01A9FFF782FD60B9019803681E0C12
:40118000DBB2E269934206D2226A52F8233013B1984700E0002631462069FFF733FDADB275B16369ADB21D601B68636A1BB198470023636202E0A36A03B198470023A361F9
:4011C00063691B6802B070BD985D08107050020810B50446074B1B6823B940F2B111064800F08EF8034B1B682C2000FB0430FFF791FF10BD504B0208985D081038B50D4BDC
:401200009A680D4B9A420FD10D46044621B940F237110A4800F074F804F11003064A52F8230042F8235038BD1030054B53F8200038BD00BF00ED00E000400208D85D08107F
:401240000000081048B338B504460D464368072B03D93221134800F053F8B4F900306268002B08DB5201D2B203F1604303F5614383F8002305E003F00F035201D2B20A49BE
:40128000CA540A4B9A680A4B9A4208D12946B4F90000FFF7B3FF002038BD06487047002038BD00BFD85D081014ED00E000ED00E0004002080100560010B5044605E0084B1A
:4012C000186800F081F8A4F50044B4F5004FF6D8044B186800FB04F000F076F810BD00BFA8420208A442020808B5034B1B7800FB03F000F069F808BDA042020801BEFEE7A4
:4013000038B50D46044C18220146204602F04CFCA5610020FFF7F2FFF0480208FEE700BF08B50268254BDA6142681A6282685A62C2689A620269DA6242691A6382695A63CE
:40134000C2699A631E4A916AD963D16A1964516A5964516B9964926BDA64F1EE103A13F0900F27D0026A154B1A65426A5A65826A9A65C26ADA65026B1A66426B5A66826B6D
:401380009A66C26BDA66026C1A67426C5A67826C9A67C26CDA67026DC3F88020426DC3F88420826DC3F88820C26DC3F88C20026EC3F89020FFF7B2FF08BD00BFF0480208FC
:4013C00000ED00E0000000000230800803D001300238FCD100BF00BF7047EFF3108072B6704780F310887047014B1860704700BF7050020810B4D0F8003303F00F03072B19
:4014000006D900230DE0D0F84043CC54013300E000239342F7D306E0D0F8404321F8134001339342F8D35DF8044B704710B51446D0F80833C3F308039A4200D31C46224654
:40144000FFF7D8FF204610BD036813F4006F01D0802200E04022D0F80832C3F30803934203D0C0F84012012070470020704700BF10B4D0F8003203F00F03072B06D90023FC
:401480000DE0CC5CC0F84042013300E000239342F7D306E031F81340C0F8404201339342F8D35DF8044B704710B51446036813F4006F01D0802200E04022D0F80832C3F3CF
:4014C0000803D31AA34200D81C462246FFF7D0FF204610BD2DE9F84305460C46036813F4006F02D04FF0800801E04FF04008D5F8007207F00F07A26A012A19D9D4F82490B0
:40150000E262561EB9F1000F00D026B940F273512548FFF7F5FE324649462846FFF7C4FFA36A1B1AA362072F00D9400048446062D5F80832C3F30803984533D0A36A012B4C
:4015400030D10023A362072F02D8636A1E7801E0636A1E88FFF741FFC5F840624FF40073C5F8803FD5F8803FFFF73BFFD5F8883F23F4007222F0010242F4007623F4EE63B2
:4015800023F0030323B140F22A410848FFF7B8FEC5F8886F236843F002032360236B0BB101209847BDE8F8838C5F0810CC5F08102DE9F04105460C46036813F4006F01D065
:4015C000802600E040267608A769D4F81C8017B1B8F1000F04D14FF499613148FFF790FE424639462846FFF721FF236A03442362E3691B1AE36173BBA368FBB1E3689E42C1
:4016000001D8013E00E05E1E2B6813F4006F01D0802300E040239E4204D34FF420712148FFF76EFED5F8043323F0FF03F6B21E43C5F804630123C5F8C83F02E00023C5F830
:40164000C83F636823F001036360236B33B304209847BDE8F081A169D5F8002302F00F02072A00D940000844A0619E4216D95C1E2B6813F4006F01D0802300E040239C42B6
:4016800004D34FF420710748FFF73AFED5F8043323F0FF02E3B21343C5F80433BDE8F0818C5F0810CC5F0810002800F0A48170B50546002900F0A18116460C460B78022B69
:4016C00003D93F21A248FFF71BFE637B023BDBB2062B03D940219E48FFF712FEA37B3BB1022B05D0032B03D041219948FFF708FE94F82130012B03D942219548FFF700FE4E
:4017000094F82830012B03D943219148FFF7F8FD2378012B06D86368083B082B94BF0023012307E0A37F2BB16368013B062B94BF002301231BB145218548FFF7E1FDA36880
:40174000053B042B03D946218148FFF7D9FD6369FF2B03D947217E48FFF7D2FDA369FF2B03D948217A48FFF7CBFDA37C6BB1237833B9A368092B05D1A37B2BB1012304E089
:40178000012302E0012300E000231BB14A217048FFF7B6FD636B23F4366323F00D031BB14C216B48FFF7ACFDE36B23F4EE6323F003031BB14D216648FFF7A2FD2378022B24
:4017C00001D1A37F13B16268013A00E00022237F13B14FF4803100E00021A368082B02D84FF4006300E000230B4302F00F02134343F000732B60226B2B6813F4006F01D0CF
:40180000802300E040239A4203D362215048FFF777FDA26B2B6813F4006F01D0802300E040239A4203D363214948FFF769FD626A2B6813F4006F01D0802300E040239A4233
:4018400003D364214248FFF75BFD23781B0603F040732B64637F0BB1402200E00022A37C13B14FF4806300E000231343227C12B14FF4807200E000221343627C12B14FF40E
:40188000007200E000221A43E36A013B1B0403F470231343627B013A02F007021343A27B120102F030021343AB64237B13B14FF4807200E00022E37B23B92378022B03D13E
:4018C000012302E0012300E0002313B14FF4007300E000231A43A368013B03F00F031343C5F80033227DA3691B0403F47F031343C5F81033E26AD5F8003303F00F0303332F
:401900009A4201D3102A03D97A211148FFF7F8FCE37F23B12378012B03D0002302E0002300E0012313B14FF4807200E00022637B013B03F007031A43A37B1B0103F0300338
:4019400013436B64237B2BB14FF4807203E000BF106008100022A368013B03F00F0313432278012A02D14FF4803200E000221343C5F8003294F83030C5F8043394F8203015
:4019800013B14FF0007200E0002294F82130012B02D14FF0807300E00023134394F82820012A02D14FF4803200E00022134394F8242013432B6594F83830C5F80432636BBF
:4019C00023F4926323F002031B051B0DC5F8C83FE36B23F08C035B055B0DC5F8883F76B1002070603060B060F0603062F0623063044B736370BD04487047034870BD002010
:401A000070BD00BFEFCDAB000160AA000B694A69934202D34869181A7047CA694869101A184470472DE9F04107460D46036813F4006F02D04FF0800801E04FF040084FEABA
:401A40005808D7F80863C6F308062C6926E00134EB689C4200D100246B699C420FD12B6B0BB1082098476B699C4208D10023C7F8C83F0CB1013C13E0EC68013C10E0D7F873
:401A80004023D7F8003303F00F03072B02D8AB681A5502E0AB6823F81420013E002ED6D12C61EC6829463846FFF7B0FF201A804519D908B1441E00E000243B6813F4006F3A
:401AC00001D0802300E040239C4204D34FF420710648FFF715FCD7F8040320F0FF03E0B21843C7F80403BDE8F08100BFCC5F0810F8B505460E4617461C4623B940F26131F3
:401B00002448FFF7FDFB626B234B9A4204D040F262312048FFF7F4FB06B127B940F263311C48FFF7EDFB236813F0010F30D1012323606662A7622B6813F4006F01D080231B
:401B400000E040235C082B6813F4006F01D0802300E040239C4204D34FF43A710F48FFF7CFFBD5F8043223F0FF032343C5F804322B6CC3F30163012B05D140F20153C5F8DD
:401B8000883F0020F8BD0123C5F8883F0020F8BD0348F8BD10600810EFCDAB00CC5F08100360AA000868704738B504460D46D0F8003E13F0080F35D0D0F8CC3F13F4487362
:401BC0000AD04A681A434A60C0F8C03FD0F8C03F0B6B0BB110209847D4F8CC3F13F4006F09D06B6843F400636B604FF40063C4F8C03FD4F8C03FD4F8CC3F13F0010F11D03E
:401C0000EB6923B129462046FFF7D2FC05E0AB681BB129462046FFF705FF0123C4F8C03FD4F8C03FD4F8003E13F0040F2ED0D4F88C3F13F4A0630AD02A681A432A60C4F8D8
:401C4000803FD4F8803F2B6B0BB120209847D4F88C3F13F0010F08D029462046FFF73AFC0123C4F8803FD4F8803FD4F88C3F13F4007F0BD00022C4F8882F2B6823F00103C5
:401C80002B60EA622B6B0BB10220984738BD00BF2DE9F8430E46074618B93A217548FFF72FFB1EB93B217348FFF72AFB002F00F0DA80002E00F0DA8032686F4B13401BB1DE
:401CC0004A216C48FFF71CFB72686C4B13401BB14B216848FFF714FBB36813F0FC2F03D04C216448FFF70CFBF36813F0FC2F03D04D216048FFF704FB337D032B03D94E2125
:401D00005C48FFF7FDFAB369B3F5803F03D34F215848FFF7F5FAF36D072B03D950215548FFF7EEFA336EB3F5803F03D351215148FFF7E6FA736EB3F5803F03D352214D4885
:401D4000FFF7DEFA736843F000437B60B3683B61F3687B613369BB61337D9B07FB61B3693B62336803F46068736803F00409002435E02546A31D06EB83035A68404B1340AC
:401D80001BB163213B48FFF7BBFAAB1D06EB8303596805F1200247F822105B6813F0012F0BD1B8F5606F08D1B9F1000F05D04FF47842344B23F8152003E00022314B23F8FF
:401DC0001520726F02F11C7303F58033520093FBF2F31BB22C4A42F825300134E4B20F2CC7D9F36DC7F81832F36DC7F81032336EC7F82832336EC7F82032736EC7F8383223
:401E0000736EC7F8303296F87030DBB1B36EB3F1804F03D382211748FFF772FAF36E23F44F0323F0FF031BB183211248FFF768FA6FF04043C7F80433B36EC7F80033F36ECB
:401E4000C7F84433D7F8003F3F2B02D0D7F8003F13B90B23C7F8003F336843F400133B600020BDE8F8830948BDE8F8830748BDE8F88300BF506008100811DF0001FE30206E
:401E800088CA887E74500208945002080100060038B50D46044618B9B5211748FFF730FA2CB30023236063604FF0031222616261A361E361236206E003F12002002144F84F
:401EC00022100133DBB20F2BF6D90023C4F81832C4F82832C4F838325DB16FF04043C4F804330020C4F84003C4F8440338BD034838BD002038BD00BF5060081001000600A4
:401F000008B50368002B0ADBD0F8A032002BFBDB036843F0004303600220FFF7E5F908BD38B505460C46012904D940F271110648FFF7E6F9012C04D16B6843F480336B60DD
:401F400038BD01236B6238BD5060081038B504460D46012904D94FF4F0711148FFF7D0F9D4F8103203F00103012D06D00AE0D4F8103203F00103013A00E00A4A1BB9002A0C
:401F8000F5D100E0074A33B10123C4F81032D4F81032002038BD0AB9034838BD034838BD5060081055555501020006000300060038B505460C460F2904D94FF4157108482D
:401FC000FFF79EF90F2C07D8203455F8243013F0012F03D0002038BD002038BD012038BD5060081038B505460C460F2904D940F222211048FFF784F90F2C14D8214628465C
:40200000FFF7D6FF80F0010010F0FF0F05D06B6813F0080F09D1002038BD6B6813F0040F05D1002038BD002038BD012038BD012038BD00BF5060081038B505460C460F2947
:4020400004D940F27B210648FFF75AF90F2C04D8603455F8240080B200E0002000B238BD50600810F8B506460C4615460F2904D940F27B311948FFF743F90F2C2BD873681C
:4020800013F0800F22D104F1200356F8233013F4806F1BD07768C7F302170137012303FA07F7736813F4807F02D1102F00D9102721463046FFF796FF20B9ADB2B5FBF7F5B9
:4020C0002DB203E03FB295FBF7F52DB2044B33F81430ED1A2DB22846F8BD00BF506008107450020870B505460C4616460F2904D94FF477711348FFF703F90F2C1AD86B680B
:4021000013F0020F19D1324621462846FFF7AAFF07EE900AF8EEE77AF2EE046A67EEA66A094B53F8243007EE103AB8EEC77AC6EE877A04E0DFED057A01E0DFED047A17EEFF
:40214000900A70BD50600810945002080000000070B5064614461D4621B140F29E410E48FFF7CEF8B4F1804F04D340F29F410A48FFF7C6F8012D04D94FF494610648FFF7D5
:40218000BFF8012D05D1D6F800331C43C6F8004370BDC6F8044370BD5060081070B504460D46164621F44F0323F0FF0323B140F2ED410C48FFF7A4F8012E04D940F2EE41BB
:4021C0000848FFF79DF8012E05D1D4F844331D43C4F8445370BDD4F8443323EA0505C4F8445370BD5060081000287DD00346002A7CD070B45068000280B29568AD0405F44F
:4022000080252843D468240404F4403404431069000600F0E0602043147F0CB1012400E0002420430C1DA4011851D06828B903EB81100024C0F808410CE0012805D114682E
:4022400003EB8110C0F8084104E003EB81100124C0F80841106938B9546903EB8110C0F80C419469C0F81041146803EB8110C0F81441906CB0F1FF3F17D0946A04F00F04D5
:40228000166B360206F470663443956B2D0405F470252543146C2403A4B22C430001C0B2204303EB8114C4F82001506A00F00300D66A360106F030063043556B2D0205F4AA
:4022C00040752843D46BA401E4B20443506C800000F00C00204303EB8113C3F82401126AC3F83821002003E0024870470148704770BC70470100B60043684B609A688A6090
:402300009A68516099600861036801330360704703694268816891608268416851605A68904201D182685A60002202611A68013A1A601868704700BF094B9B6A1B680BB93F
:40234000012300E0002323B14FF0FF32044BDA627047034B9A6AD268D2685268DA627047904B02082DE9F0413C4BD3F81831002B65D13A4BD3F814410134C3F81441CCB9A6
:402380009B6A1B6843B14FF03F0383F31188BFF36F8FBFF34F8FFEE7304B9A6AD3F8F8109962C3F8F820D3F820210132C3F82021FFF7C2FF294BDB6A9C4203D2002645E023
:4023C000012600E00026254B9B6A1B680BB9012300E0002323B14FF0FF32204BDA6235E01E4B9B6ADB68DD686B689C4202D21B4AD3622BE005F104084046FFF789FFAB6A92
:402400001BB105F11800FFF783FFEB6A134AD2F80C21934202D9114AC2F80C310F4F07F1300003EB83039A0041461044FFF764FFEA6AD7F80031DB6A9A42C1D2C3E7074AD4
:40244000D2F824310133C2F824310026034BD3F8283103B101263046BDE8F081904B0208304BD3F8183123B101222E4BC3F82821704710B52B4B0022C3F82821D3F80031FF
:402480001B6B1A68B2F1A53F0BD15A68B2F1A53F07D19A68B2F1A53F03D1DB68B3F1A53F07D0204BD3F80001D3F80011343100F09FF81C4BD3F80C310AE043B94FF03F03BC
:4024C00083F31188BFF36F8FBFF34F8FFEE7013B03EB83018A0013490A44126B002AECD008469900CC18A2000244546B64685463303019448A0008320244944206D1606832
:4025000003EB83018A0007490A445063054903EB830082000A44526BD268C1F80021C1F80C3110BD904B02080000000000000000074B19680868B0E8F04F80F30988BFF376
:402540006F8F4FF0000080F311887047AFF30080904C0208000000000000000000000000EFF30980BFF36F8F154B1A681EF0100F08BF20ED108A20E9F04F10602DE90900E4
:402580004FF03F0080F31188BFF34F8FBFF36F8FFFF766FF4FF0000080F3118809BC19680868B0E8F04F1EF0100F08BFB0EC108A80F30988BFF36F8F704700BFAFF30080A8
:4025C000904C020808B54FF03F0383F31188BFF36F8FBFF34F8FFFF7C5FE18B14FF08052024B1A60002383F3118808BD04ED00E008B54FF03F0383F31188BFF36F8FBFF397
:402600004F8F4FF441710248FEF77AFEFEE700BF8C60081070B539B900240AE015F8010BFEF78EF9013402E016460D460024B442F4DB204670BD00BF70B561B900240FE05B
:40264000FEF78AF9C0B2287001340A2808D00D2806D0013502E016460D460024B442EFDB204670BD08B502490248FFF79DFA08BDD45002080000664008B5114B1B785BB918
:40268000104A11491148FFF70FF811491148FEF7D9FD01220A4B1A700E4BB3F90030002B08DB590903F01F03012202FA03F30A4A42F82130054A136843F00043136008BD6A
:4026C000BC4C0208D4500208DC6008100000664065260810485C081000E100E038B50446264B1A68916892F8703003F00403DBB243F08043C1F800340369FF2B0AD8916858
:40270000B2F874200A44116921F47F411B029BB20B431361194B1A68906892F87310032303FA01F592F8703092F8721003FA01F1294303F004030B4343F00043C0F8003453
:402740009368D3F800340E4D00212846FFF7A0FBA1682846FFF79CFA01234FF4803200212846FFF7F5FC6368012B05D901224FF480312846FFF712FD38BD00BF7050020875
:4027800000001D4108B5074B5B6813F4802F04D001210448FFF7C4FB08BD00210148FFF7BFFB08BD00001D4108B501460348FFF7CDFB08B1002008BD012008BD00001D414B
:4027C00008B5084B1B7963B907490848FEF73AFD044B5B792BB90122024B5A710448FFF77DFF08BDC04C020821280810305C08105861081008B5084B1B7913F0010F06D10E
:40280000FFF7DEFF044A137943F0010313710348FFF776FB08BD00BFC04C020800001D4110B5094BD3F81042072C04D940F231610648FEF765FD044BC3F81042D3F810227E
:40284000D3F8103210BD00BF00001D411C61081008B5084B1B783BB9074A00210748FFF7C3FC0122034B1A70044B01229A609A6108BD00BFC64C0208E461081000003840E8
:4028800008B502490248FFF78FF908BD0C5102080000634008B5114B1B785BB9104A11491148FEF701FF11491148FEF7CBFC01220A4B1A700E4BB3F90030002B08DB5909A1
:4028C00003F01F03012202FA03F30A4A42F82130054A136843F00043136008BDC74C02080C510208306208100000634081280810505C081000E100E081F0004102E000BFED
:4029000083F0004330B54FEA41044FEA430594EA050F08BF90EA020F1FBF54EA000C55EA020C7FEA645C7FEA655C00F0E2804FEA5454D4EB5555B8BF6D420CDD2C4480EACC
:40294000020281EA030382EA000083EA010180EA020281EA0303362D88BF30BD11F0004F4FEA01314FF4801C4CEA113102D0404261EB410113F0004F4FEA03334CEA133360
:4029800002D0524263EB430394EA050F00F0A780A4F10104D5F1200E0DDB02FA0EFC22FA05F2801841F1000103FA0EF2801843FA05F359410EE0A5F120050EF1200E012AB5
:4029C00003FA0EFC28BF4CF0020C43FA05F3C01851EBE37101F0004507D54FF0000EDCF1000C7EEB00006EEB0101B1F5801F1BD3B1F5001F0CD349085FEA30004FEA3C0CE4
:402A000004F101044FEA445212F5800F80F09A80BCF1004F08BF5FEA500C50F1000041EB045141EA050130BD5FEA4C0C404141EB010111F4801FA4F10104E9D191F0000F8D
:402A400004BF01460020B1FA81F308BF2033A3F10B03B3F120020CDA0C3208DD02F1140CC2F10C0201FA0CF021FA02F10CE002F11402D8BFC2F1200C01FA02F120FA0CFC2E
:402A8000DCBF41EA0C019040E41AA2BF01EB0451294330BD6FEA04041F3C1CDA0C340EDC04F11404C4F1200220FA04F001FA02F340EA030021FA04F345EA030130BDC4F1A8
:402AC0000C04C4F1200220FA02F001FA04F340EA0300294630BD21FA04F0294630BD94F0000F83F4801306BF81F480110134013D4EE77FEA645C18BF7FEA655C29D094EA4C
:402B0000050F08BF90EA020F05D054EA000C04BF1946104630BD91EA030F1EBF0021002030BD5FEA545C05D14000494128BF41F0004130BD14F580043CBF01F5801130BD38
:402B400001F0004545F0FE4141F470014FF0000030BD7FEA645C1ABF194610467FEA655C1CBF0B46024650EA013406BF52EA033591EA030F41F4002130BD00BF90F0000FBE
:402B800004BF0021704730B54FF4806404F132044FF000054FF0000150E700BF90F0000F04BF0021704730B54FF4806404F1320410F0004548BF40424FF000013EE700BF76
:402BC00042004FEAE2014FEA31014FEA02701FBF12F07F4393F07F4F81F06051704792F0000F14BF93F07F4F704730B54FF4607401F0004521F0004120E700BF50EA0102A2
:402C000008BF704730B54FF000050AE050EA010208BF704730B511F0004502D5404261EB41014FF4806404F132045FEA915C3FF4DCAE4FF003025FEADC0C18BF03325FEA27
:402C4000DC0C18BF033202EBDC02C2F1200300FA03FC20FA02F001FA03FE40EA0E0021FA02F11444C1E600BF70B54FF0FF0C4CF4E06C1CEA11541DBF1CEA135594EA0C0F71
:402C800095EA0C0F00F0DEF82C4481EA030621EA4C5123EA4C5350EA013518BF52EA033541F4801143F4801338D0A0FB02CE4FF00005E1FB02E506F00042E0FB03E54FF07D
:402CC0000006E1FB03569CF0000F18BF4EF0010EA4F1FF04B6F5007F64F5407404D25FEA4E0E6D4146EB060642EAC62141EA55514FEAC52040EA5E504FEACE2EB4F1FD0CE8
:402D000088BFBCF5E06F1ED8BEF1004F08BF5FEA500E50F1000041EB045170BD06F0004646EA010140EA020081EA0301B4EB5C04C2BFD4EB0C0541EA045170BD41F480112F
:402D40004FF0000E013C00F3AB8014F1360FDEBF002001F0004170BDC4F10004203C35DA0C341BDC04F11404C4F1200500FA05F320FA04F001FA05F240EA020001F00042B2
:402D800021F0004110EBD37021FA04F642EB06015EEA430E08BF20EAD37070BDC4F10C04C4F1200500FA04F320FA05F001FA04F240EA020001F0004110EBD37041F1000101
:402DC0005EEA430E08BF20EAD37070BDC4F1200500FA05F24EEA020E20FA04F301FA05F243EA020321FA04F001F0004121FA04F220EA020000EBD3705EEA430E08BF20EABB
:402E0000D37070BD94F0000F0FD101F00046400041EB010111F4801F08BF013CF7D041EA060195F0000F18BF704703F00046520043EB030313F4801F08BF013DF7D043EAE9
:402E40000603704794EA0C0F0CEA135518BF95EA0C0F0CD050EA410618BF52EA4306D1D181EA030101F000414FF0000070BD50EA410606BF1046194652EA430619D094EADB
:402E80000C0F02D150EA013613D195EA0C0F05D152EA03361CBF104619460AD181EA030101F0004141F0FE4141F470014FF0000070BD41F0FE4141F4780170BD70B54FF0AD
:402EC000FF0C4CF4E06C1CEA11541DBF1CEA135594EA0C0F95EA0C0F00F0A7F8A4EB050481EA030E52EA03354FEA013100F088804FEA03334FF0805545EA131343EA12635F
:402F00004FEA022245EA111545EA10654FEA00260EF000419D4208BF964244F1FD0404F5407402D25B084FEA3202B61A65EB03055B084FEA32024FF480104FF4002CB6EBBD
:402F4000020E75EB030E22BFB61A754640EA0C005B084FEA3202B6EB020E75EB030E22BFB61A754640EA5C005B084FEA3202B6EB020E75EB030E22BFB61A754640EA9C0026
:402F80005B084FEA3202B6EB020E75EB030E22BFB61A754640EADC0055EA060E18D04FEA051545EA16754FEA06164FEAC30343EA52734FEAC2025FEA1C1CC0D111F4801F6C
:402FC0000BD141EA00014FF000004FF0004CB6E711F4801F04BF01430020B4F1FD0C88BFBCF5E06F3FF6AFAEB5EB030C04BFB6EB020C5FEA500C50F1000041EB045170BD5B
:403000000EF0004E4EEA113114EB5C04C2BFD4EB0C0541EA045170BD41F480114FF0000E013C90E645EA060E8DE60CEA135594EA0C0F08BF95EA0C0F3FF43BAF94EA0C0FE3
:403040000AD150EA01347FF434AF95EA0C0F7FF425AF104619462CE795EA0C0F06D152EA03353FF4FDAE1046194622E750EA410618BF52EA43067FF4C5AE50EA41047FF4D1
:403080000DAF52EA43057FF4EBAE12E74FF0FF3C06E000BF4FF0010C02E000BF4FF0010C4DF804CD4FEA410C7FEA6C5C4FEA430C18BF7FEA6C5C1BD001B050EA410C0CBF28
:4030C00052EA430C91EA030F02BF90EA020F0020704710F1000F91EA030F58BF994208BF90422CBFD8176FEAE37040F0010070474FEA410C7FEA6C5C02D150EA013C07D126
:403100004FEA430C7FEA6C5CD6D152EA033CD3D05DF8040B704700BF8446104662468C461946634600E000BF01B5FFF7B7FF002848BF10F1000F01BD4DF808EDFFF7F4FF74
:403140000CBF012000205DF808FB00BF4DF808EDFFF7EAFF34BF012000205DF808FB00BF4DF808EDFFF7E0FF94BF012000205DF808FB00BF4DF808EDFFF7CEFF94BF01209D
:4031800000205DF808FB00BF4DF808EDFFF7C4FF34BF012000205DF808FB00BF10B5431E0A44914204D011F8014B03F8014FF8E710BD02440346934202D003F8011BFAE705
:4031C00070472DE9F04788B0002B149F1299109EDDF84CA01D4627F02007BBBF03F100431D4600232D231446B8BF1446462F0B7003D0452F03D1013601E0032300E00223FA
:4032000007AA049206AA03928DE8480422462B4600F032FE472F804602D1119BDB0728D5462F08EB060911D198F80030302B0AD10022002320462946FFF77EFF18B9C6F14A
:403240000106CAF80060DAF8003099440022002320462946FFF770FF08B9302202E0CDF81C9006E0079B994503D9591C07911A70F8E7079B159AC8EB03034046136008B0EE
:40328000BDE8F08773B503460029B8BF494203F8022BB4BF2D222B220929427019DD0DF1070216460A2591FBF5F405FB14113031092C02F8011D2146F5DC3031541E02F866
:4032C000011CB4421A460AD214F8012B03F8012BF7E730241A46214402F8024B5970101A02B070BD2DE9F04F91B00C46DDF8688016461F46054601F0D7FC03680893184637
:4033000000F04AFC00230E93D8F800300990073323F0070303F1080294F818A0D4F800B0C8F80020D3E90023C4E91223D4E9128929F000430B93CDF828804FF0FF32A74B23
:40334000DDE90A0102F000FBA0B94FF0FF32A34BDDE90A01FFF704FF60B90022002340464946FFF7F3FE10B12D2384F843309C4B9C4A0AE042464B464046494602F0E4FAFF
:40338000002800F09281984B984ABAF1470F8CBF90469846032323612BF0040323604FF000093DE0BAF1670F00F08A81BAF1470F00F08681236000210DF13302019363681F
:4033C00005900292009342464B460691CDF810A0CDF80CE02846FFF7F4FE0AF0DF03472B804600F08481BAF1650F0D9900F28D810139524604F150000D91FFF743FF0E9A82
:403400008318012A8146236100F37C812268D10700F178819DF8333013B12D2384F84330009733460FAA2146284600F09FF9013002D14FF0FF3096E123685A0501D42369EA
:4034400065E0BAF1650F40F2D58000220023D4E91201FFF771FE78B30123654A31462846B8470130E5D00E9B0D9A9A420BDB2368D80708D423689B0740F111814FF0000890
:4034800004F1190906E1099B089A31462846B8470130CED04FF0000804F11A090E9B013B9845E7DA01234A4631462846B8470130BFD008F10108F1E70D9B002B29DC012305
:4034C0004B4A31462846B8470130B2D00D9B23B90E9B13B92368D907CCD5099B089A31462846B8470130A4D04FF0000904F11A0A0D9B5B42994509DA0123524631462846C4
:40350000B847013095D009F10109F1E70E9B4246A7E00E9AA36D9A42A8BF1A46002A914606DC4FF0000A29EAE97904F11A0B11E01346314642462846B8470130F1D178E744
:4035400001235A4631462846B84701303FF471AF0AF1010AA36DC9EB03029245F0DB08EB03090D9A0E9B9A420FDB2368DA070CD40E9B0D9A9844C9EB08089B1A9845A8BF64
:403580009846B8F1000F08DC0FE0099B089A31462846B8470130EBD14BE743464A4631462846B84701303FF444AF4FF0000928EAE87804F11A0A09E00123524631462846A8
:4035C000B84701303FF435AF09F101090D9A0E9B9B1AC8EB03039945EEDB4BE7FFFFEF7F786208107C6208108062081084620810886208100E9A012A01DCDB0738D50123D8
:40360000424631462846B84701303FF412AF099B089A31462846B84701303FF40AAF00220023D4E91201FFF787FD20B14FF0000804F11A0A0EE00E9B08F10102013B19E02A
:403640000123524631462846B84701303FF4F1AE08F101080E9B013B9845F1DB4B4604F1500231462846B84701307FF403AFE0E60123424631462846B8470130EED1D8E601
:4036800001234A4631462846B84701303FF4D1AE08F10108E3680F9A9B1A9845F0DBE0680F9B9842B8BF18465DE06268531C0EA84BF480630DF1340E7FF474AE062201E06F
:4036C00012B90122626075E6002106910DF133018DE80C00236005904246CDF810A0CDF80CE002914B462846FFF76BFD80460D9BD81C02DB626893421DDDAAF1020A5FFAC6
:403700008AFA70E60133236184E6BAF1660F14D10029636807DD216113B92268D2071DD501330B4419E013B92268D00701D5023313E0012311E04FF0670A0D9B0E9A93427C
:4037400005DB22682361D10708D5013305E0002BD4BFC3F102030123134423610D9BA3654FF0000956E611B0BDE8F08F2DE9F04791461F460A698B68DDF820809342B8BF4E
:403780001346C9F8003091F8432006460C4612B10133C9F800302368990642BFD9F800300233C9F80030256815F0060510D104F1190A07E00123524639463046C047013095
:4037C0001AD00135E368D9F800209B1A9D42F1DB94F843302268003318BF012392060FD5E1185A1C302081F84300224494F8451082F84310023303E04FF0FF30BDE8F087A9
:4038000004F1430239463046C0470130F4D02268D9F80050E36802F00602042A08BF5D1B2269A3680CBF25EAE57500259342C4BF9B1AED184FF000091A344D4509D00123DA
:40384000224639463046C0470130D5D009F10109F3E70020BDE8F0872DE9F04317460A7E85B06E2A984606460C460C9B01F1430E00F0AE8011D8632A22D009D8002A00F012
:40388000BB80582A40F0CA8081F84520834955E0642A1ED0692A1CD0C0E0732A00F0B08009D86F2A2ED0702A40F0B8800A6842F020020A603EE0752A24D0782A3AD0ADE006
:4038C0001A6801F14205111D1960136884F84230A8E021681A6811F0800F02D0111D196008E011F0400F02F10401196002D0B2F9003000E01368002B3CDA2D225B4284F807
:40390000432037E021681A6811F0800F02D0111D196007E011F0400F02F10401196001D0138800E01368227E5C496F2A14BF0A2208221BE078225A4984F845202268186860
:4039400012F0800F00F104051D6003D1550601D5038800E00368D00744BF42F0200222601BB9226822F0200222601022002084F8430001E049490A226568A560002D08DB0E
:40398000206820F0040020602BB9002D7DD175460CE0002B79D07546B3FBF2F002FB1033CB5C05F8013D03460028F5D1082A0BD12368DA0708D5236962689A42DEBF3023D4
:4039C00005F8013C05F1FF35C5EB0E0323612EE008681A68496910F0800F03D0101D1860136808E010F0400F02F104001860136801D0198000E0196000232361754616E0AE
